:10FC000031408002B240805A20013F4000000F93F3
:10FC100005242F839F4F72FC0002FB233F4000000E
:10FC20000F9304241F83CF430002FC2330404AFC7F
:10FC3000304034FC001305120412B240805A2001F7
:10FC4000D2D3220034413541304131407E0204415B
:10FC5000B01236FCB44010270000B4530000B49337
:10FC60000000FB23D2E32100F53F2153304070FC1C
:02FC7000FF3F54
:10FFE00030FC30FC30FC30FC30FC30FC30FC30FCB1
:10FFF00030FC30FC30FC30FC30FC30FC30FC00FCD1
:040000030000FC00FD
:00000001FF
